:03000000020100FA
:10010000E590B4000C7963D2943179C29451218086
:10011000F4B4010C7964D294318EC294510C80F104
:10012000B4020C7964D29431A3C29431F780F1B453
:10013000030C7964D29431B8C29431E280F1B404F2
:100140000E7964C29451367964D29431CD80EFB483
:10015000050C7964C29431B8D29431E280F1B406CE
:100160000C7964C29431A3D29431F780F17964C2DE
:1001700094318ED294510C80F4758901758CB975C7
:100180008A00D28C308DFDC28CC28DD9EC2275894B
:1001900001758CC1758A00D28C308DFDC28CC28DE8
:1001A000D9EC22758901758CC9758A00D28C308D85
:1001B000FDC28CC28DD9EC22758901758CD1758AEE
:1001C00000D28C308DFDC28CC28DD9EC2275890194
:1001D000758CD7758A00D28C308DFDC28CC28DD9BA
:1001E000EC22758901758CF3758A00D28C308DFDF7
:1001F000C28CC28DD9EC22758901758CF6758A0086
:10020000D28C308DFDC28CC28DD9EC2275890175DE
:100210008CF9758A00D28C308DFDC28CC28DD9ECE0
:1002200022758901758CFC758A00D28C308DFDC2D7
:100230008CC28DD9EC22758901758CD8758A00D253
:0D0240008C308DFDC28CC28DD9EC2280FE69
:00000001FF
